:100000000C947D0F0C94A50F0C94A50F0C94A50FC8
:100010000C94A50F0C94A50F0C94A50F0C94CF185D
:100020000C94A50F0C94A50F0C94A50F0C94A50F80
:100030000C94A50F0C94A50F0C94A50F0C94A50F70
:100040000C9485180C94A50F0C9451190C942B1931
:100050000C94A50F0C94A50F0C94A50F0C94A50F50
:100060000C94A50F0C94A50F00407A10F35A00A031
:10007000724E18090010A5D4E80000E87648170071
:1000800000E40B54020000CA9A3B000000E1F505B1
:10009000000080969800000040420F000000A086FB
:1000A00001000000102700000000E803000000002D
:1000B0006400000000000A000000000001000000D1
:1000C00000002C76D888DC674F0823DFC1DFAE59EB
:1000D000E1B1B796E5E3E453C63AE651997696E87E
:1000E000E6C28426EB898C9B62ED407C6FFCEFBC02
:1000F0009C9F40F2BAA56FA5F490055A2AF75C932D
:100100006B6CF9676DC11BFCE0E40D47FEF520E662
:10011000B500D0ED902E0300943577050080841E45
:10012000080000204E0A000000C80C333333330FA0
:10013000986E12831141EF8D2114893BE65516CF3D
:10014000FEE6DB18D1844B381BF77C1D901DA4BB49
:10015000E424203284725E228100C9F124ECA1E5FE
:100160003D27FFE0FFD1AFFF32FFD0FFFEFFE0FFF2
:10017000D1AEFFD0FFFEFFE0FFD11002FFFEFFD0A7
:10018000FFE0FFC1FFD1AED580A83FD300408D1462
:100190002002A1C8DA1281CFD9F1DB402EA4A6AF8C
:1001A000FFD0FFFE00000000240027002A0000000E
:1001B00000002300260029000000000800020100C2
:1001C0000003040700000000000000000102040812
:1001D00010204080010204081020010204081020B1
:1001E00000000000250028002B000404040404047F
:1001F00004040202020202020303030303030201D6
:10020000060A00FE070136026820FFFE08FE07FE10
:100210000A00602217678080808080008016336328
:10022000A0A0A00257675050F850F85050025767EE
:100230002070A07028702002576748A8502050A84E
:100240009002576740A0A040A89068261363808062
:1002500080123767204080808040201237678040BE
:1002600020202040800355658850F850880355654C
:100270002020F82020113363604080055161F8117F
:10028000336340E040025767080810204080800236
:100290005767205088888850200257672060A02028
:1002A0002020F8025767708808304080F8025767AE
:1002B000F808103008887002576710305090F81016
:1002C00010025767F880B0C808887002576730403E
:1002D00080B0C88870025767F808101020404002AC
:1002E0005767708888708888700257677088986828
:1002F00008106011376740E0400040E04011376768
:1003000040E040006040801247671020408040205D
:1003100010045363F800F812476780402010204013
:10032000800257677088102020002002576770886D
:1003300098A8B0807002576720508888F888880293
:100340005767F04848704848F002576770888080C7
:10035000808870025767F04848484848F00257675D
:10036000F88080F08080F8025767F88080F0808005
:1003700080025767708880809888700257678888E5
:1003800088F8888888123767E04040404040E002A3
:100390005767381010101090600257678890A0C0FF
:1003A000A09088025767808080808080F80257671D
:1003B0008888D8A88888880257678888C8A89888B5
:1003C0008802576770888888888870025767F08825
:1003D00088F08080800158687088888888A87008B4
:1003E000025767F08888F0A090880257677088806D
:1003F00070088870025767F82020202020200257BC
:1004000067888888888888700257678888885050ED
:100410005020025767888888A8A8D888025767881C
:1004200088502050888802576788885020202020D4
:10043000025767F80810204080F8123767E0808084
:10044000808080E0025767808040201008081237C3
:1004500067E02020202020E00653632050880151CF
:1004600061F8282262804002556570087888780219
:1004700057678080B0C888C8B0025565708880888A
:1004800070025767080868988898680255657088F0
:10049000F88070025767304840F04040400057678E
:1004A000788888780888700257678080B0C8888804
:1004B000881237674000C0404040E0104969100092
:1004C0003010101090906002576780808890E09004
:1004D00088123767C04040404040E0025565D0A8D0
:1004E000A8A888025565B0C88888880255657088B4
:1004F000888870005767B0C888C8B0808000576788
:1005000068988898680808025565B0C8808080029D
:10051000556570807008F00257674040F0404048D1
:1005200030025565888888986802556588885050DB
:10053000200255658888A8A850025565885020502B
:100540008800576788889868088870025565F81091
:100550002040F8124767304020C020403022176703
:1005600080808080808080124767C020403040209B
:10057000C006536348A890FFFFFFFFFFFFFFFFFF88
:10058000FFFFFFFFFFFFFFFFFFFFFFFFFFFFFFFF7B
:10059000FFFFFFFFFFFFFFFF0A00602217678000D9
:1005A00080808080800157672078A0A0A0782002FA
:1005B0005767304840E04048B00255658870507039
:1005C0008801586888885020F820202022176780EA
:1005D0008080008080800158687080E090483808F2
:1005E00070193161A00257677088A8C8A888701375
:1005F00046667090B05000F002656524489048242B
:10060000144262F010154161F00257677088E8C823
:10061000C88870095161F816336340A040025666DD
:100620002020F82020F815456560902040F0154501
:1006300065E0106010E028226240800156668888DC
:1006400088C8B08002576778E8E86828282825110C
:100650006180202262408015356540C04040E01333
:1006600046666090906000F002656590482448906E
:1006700001696940C04040E40C143C0401696940D0
:10068000C04040E81404081C015969C0204020C83B
:1006900018287808025767200020204088700258E8
:1006A000684020708888F888880258681020708810
:1006B00088F888880258682050708888F8888802EE
:1006C000586848B0708888F8888802586850007068
:1006D0008888F888880258682050708888F8888848
:1006E0000267673C50909CF0909C0059697088802C
:1006F00080808870204002586840F88080F08080B8
:10070000F802586810F88080F08080F8025868205D
:10071000F88080F08080F802586850F88080F0807F
:1007200080F81238688040E040404040E01238686D
:100730002040E040404040E012386840A0E04040A7
:100740004040E0123868A000E040404040E00257DE
:1007500067F04848E84848F0025868285088C8A818
:100760009888880258684020708888888870025865
:1007700068102070888888887002586820507088B7
:100780008888887002586828507088888888700225
:100790005868500070888888887002556588502095
:1007A0005088025767709898A8C8C8700258684067
:1007B00020888888888870025868102088888888EF
:1007C00088700258682050008888888870025868AD
:1007D000500088888888887002586810208888505F
:1007E00020202002576780F088F0808080025767C1
:1007F000708890A09088B0025868402000700878F7
:100800008878025868102000700878887802586844
:1008100020500070087888780258682850007008C6
:10082000788878025767500070087888780258688E
:10083000205020700878887802656578147C907C58
:1008400000576770888088702040025868402000F8
:100850007088F880700258681020007088F88070E6
:100860000258682050007088F88070025767500066
:100870007088F88070123868804000C0404040E0C6
:10088000123868408000C0404040E012386840A004
:1008900000C0404040E0123767A000C0404040E048
:1008A000025767C0307088888870025868285000E6
:1008B000B0C888888802586840200070888888708E
:1008C000025868102000708888887002586820508C
:1008D000007088888870025868285000708888885E
:1008E0007002576750007088888870035565200033
:1008F000F800200255657898A8C8F0025868402092
:10090000008888889868025868102000888888982D
:100910006802586820500088888898680257675095
:100920000088888898680059691020888898680825
:10093000887000586880F0888888F0808000596945
:1009400050008888986808887000101000FE0A0619
:10095000A7089500FFFE0EFE0BFE1010201000FEF3
:10096000AAAA00018000000180004A51EA505A51B1
:10097000C99E0001800000018000000180005555E3
:100980001010201000FEAAAA0001800000018000C3
:100990003993C252325F8A52719380000001800005
:1009A0000001800055551010201000FEAAAA000179
:1009B0008000000180003BA5C124311989247125E4
:1009C00080000001800000018000555510102010AB
:1009D00000FEAAAA00018000000180007BA5C124BE
:1009E0007919C12479258000000180000001800070
:1009F00055551010201000FEAAAA00018000000129
:100A0000800079BFC2487A49C248798980000001D4
:100A100080000001800055551010201000FEAAAA89
:100A200000018000000180007A4DC2527B53C2D683
:100A30007A4F8000000180000001800055551010A1
:100A4000201000FEAAAA000180000001800031A54C
:100A5000CA287A31CA2849A5800000018000000117
:100A6000800055551010201000FEAAAA0001800039
:100A70000001800073D1CA1073D1CA1073DF8000E7
:100A8000000180000001800055551010201000FE6C
:100A9000AAAA00018000000180001E3991401E3189
:100AA00091081E71800000018000000180005555F2
:100AB0001010201000FEAAAA000180000001800092
:100AC00022F9A2203E21A2202221800000018000E4
:100AD0000001800055551010201000FEAAAA000148
:100AE00080000001800020F9A08020F9A0803E81D4
:100AF000800000018000000180005555101020107A
:100B000000FEAAAA000180000001800022F9A220B4
:100B10002221942008218000000180000001800033
:100B200055551010201000FEAAAA000180000001F7
:100B300080003EF9A0803EF9A08020818000000165
:100B400080000001800055551010201000FEAAAA58
:100B500000018000000180001EF1A08820F1A0901B
:100B60001E89800000018000000180005555101092
:100B7000201000FEAAAA00018000000180001E7162
:100B8000A0881C8982883C718000000180000001DF
:100B9000800055551010201000FEAAAA0001800008
:100BA000000180001EF9A0201C2182203CF9800059
:100BB000000180000001800055551010201000FE3B
:100BC000AAAA0001800000018000391DA510251D82
:100BD000A51039DD8000000180000001800055551E
:100BE0001010201000FEAAAA000180000001800061
:100BF0007189CA184A09CA08719D800000018000E5
:100C00000001800055551010201000FEAAAA000116
:100C10008000000180007199CA044A09CA10719DC0
:100C20008000000180000001800055551010201048
:100C300000FEAAAA00018000000180007199CA0488
:100C40004A19CA04719980000001800000018000E7
:100C500055551010201000FEAAAA000180000001C6
:100C600080007185CA0C4A15CA1C7185800000017C
:100C700080000001800055551010201000FEAAAA27
:100C800000018000000180004993EA546A59DBD4D6
:100C90004A5380000001800000018000555510106B
:100CA000201000FEAAAA0001800000018000345339
:100CB000C29A31178912711380000001800000016F
:100CC000800055551010201000FEAAAA00018000D7
:100CD000000180007BB9C1247939C12479398000B1
:100CE000000180000001800055551010201000FE0A
:100CF000AAAA00018000000180003325C4B447ADDA
:100D0000C4A434A580000001800000018000555576
:100D10001010201000FEAAAA00018000000180002F
:100D20003E89A0D83EA9A0883E89800000018000AD
:100D30000001800055551010201000FEAAAA0001E5
:100D40008000000180003A5DC252325D8A52719D7E
:100D50008000000180000001800055551010201017
:100D600000FEAAAA000180000001800079CFC21015
:100D70007991C0507B8F80000001800000018000CD
:100D800055551010201000FEAAAA00018000000195
:100D900080001E7190801E61901010E180000001A3
:100DA00080000001800055551010201000FEAAAAF6
:100DB00000018000000180000E7190801661921089
:100DC0000EE18000000180000001800055551010E8
:100DD000201000FEAAAA00018000000180001C7102
:100DE00092801C61941012E18000000180000001DB
:100DF000800055551010201000FEAAAA00018000A6
:100E00000001800012719280126192100CE180004A
:100E10000001800000018000555500000008000E10
:100E2000010A0A0804008080808080808000808021
:100E300005040408020888888888060A0A08010050
:100E4000242424FC4848FC909090070A0A080100DA
:100E5000107C9290701C12927C10070A0A08010004
:100E60006294946810102C52528C070A0A080100F0
:100E70003844442830528A848C72010404080408DF
:100E800080808080030C0C0803FF2040408080801D
:100E9000808080404020030C0C0802FF80404020EE
:100EA00020202020204040800707070801011092E1
:100EB0005438549210070707080101101010FE1053
:100EC00010100204040803FEC04040800401010821
:100ED0000204F0020202080300C0C0060A0A080168
:100EE0000004040810102020408080060A0A08012F
:100EF0000030488484848484844830050A0A0802C7
:100F0000002060A0202020202020F8060A0A0801E6
:100F100000788484041820408080FC060A0A0801B6
:100F20000078848404380404848478060A0A08015A
:100F300000081828488888FC080808060A0A0801DA
:100F400000FC808080F80404048478060A0A080102
:100F50000038408080F88484848478060A0A080176
:100F600000FC040408080810101010060A0A080102
:100F70000078848484788484848478060A0A08014A
:100F800000788484847C0404040870020707080342
:100F900001C0C0000000C0C00209090803FFC0C0B2
:100FA000000000C040408005090908020008102028
:100FB000408040201008060505080102FC000000E2
:100FC000FC0509090801008040201008102040801D
:100FD000060A0A0801007884840408101000101022
:100FE000060A0A080100384494ACA4A4A49C403C1E
:100FF000060A0A0801003048488484FC84848484FA
:10100000060A0A080100F8848484F884848484F839
:10101000060A0A08010078848480808080848478AD
:10102000060A0A080100F08884848484848488F095
:10103000060A0A080100FC808080F880808080FC1D
:10104000060A0A080100FC808080F8808080808089
:10105000060A0A08010078848480809C84848C7449
:10106000060A0A08010084848484FC8484848484BD
:10107000050A0A080200F82020202020202020F85D
:10108000070A0A0801003E0808080808088888704E
:10109000060A0A080100848890A0C0C0A090888435
:1010A000060A0A080100808080808080808080FCA1
:1010B000060A0A0801008484CCCCB4B484848484F5
:1010C000060A0A08010084C4C4A4A494948C8C84E5
:1010D000060A0A08010078848484848484848478DD
:1010E000060A0A080100F8848484F88080808080E1
:1010F000070B0B0801FF78848484848484B4CC7843
:1011000006060A0A080100F8848484F89088888416
:1011100084060A0A080100788484806018048484A4
:1011200078070A0A080100FE1010101010101010A5
:1011300010060A0A080100848484848484848484D8
:1011400078070A0A08010082828244444428281051
:1011500010060A0A08010084848484B4B4CCCC84C8
:1011600084060A0A080100848448483030484884CC
:1011700084070A0A080100828244442810101010D3
:1011800010060A0A080100FC0404081020408080B0
:10119000FC030C0C0804FFE080808080808080804D
:1011A0008080E0060A0A080100808040202010109C
:1011B000080404030C0C0801FFE02020202020205C
:1011C00020202020E006030308010930488407019D
:1011D000010801FFFE03030308020A8040200608FD
:1011E000080801007884047C84848C74060B0B0846
:1011F0000100808080B8C484848484C4B806080850
:101200000801007884808080808478060B0B0801B8
:1012100000040404748C848484848C740608080894
:101220000100788484FC80808478050B0B08010021
:1012300018202020F8202020202020060B0B080159
:10124000FE0474888888704078848478060B0B08C4
:101250000100808080B8C4848484848484050B0B5E
:1012600008020020200060202020202020F8050D0A
:101270000D0801FE0808001808080808080808906A
:1012800060060B0B0801008080808890A0C0A090B1
:101290008884050B0B0802006020202020202020DD
:1012A0002020F8070808080100EC9292929292928E
:1012B00092060808080100B8C484848484848406E3
:1012C00008080801007884848484848478060A0AE3
:1012D0000801FEB8C484848484C4B88080060A0AE5
:1012E0000801FE748C848484848C740404060808C9
:1012F000080100B8C4848080808080060808080146
:10130000007884806018048478050A0A08010020A7
:101310002020F8202020202018060808080100843A
:1013200084848484848C740608080801008484847E
:10133000484848303007080808010082929292928B
:1013400092926C0608080801008484483030488472
:1013500084060A0A0801FE84848484844C340404CC
:1013600078060808080100FC040810204080FC03EF
:101370000C0C0803FF6080804040808040408080EB
:1013800060010E0E0804FE80808080808080808056
:101390008080808080030C0C0802FFC02020404029
:1013A000202040402020C007030308010862928CDF
:1013B0001010201000FEAAAA000180000001800089
:1013C00073D1CA104BD1CA1073DF800000018000B6
:1013D0000001800055551010201000FEAAAA00013F
:1013E000800000018000719DCA5273D3C252425DD9
:1013F0008000000180000001800055551010201071
:1014000000FEAAAA0001800000018000499DCA5286
:101410007A5DCA504991800000018000000180007F
:1014200055551010201000FEAAAA000180000001EE
:1014300080007393CA52739FCA1272138000000116
:1014400080000001800055551010201000FEAAAA4F
:1014500000018000000180004B93EA525B9FCA525A
:101460004B93800000018000000180005555101052
:10147000201000FEAAAA000180000001800074B9BB
:10148000A6A425A5A4A474B98000000180000001D1
:10149000800055551010201000FEAAAA00018000FF
:1014A000000180004BD1EA105BD1CA104BDF8000F5
:1014B000000180000001800055551010201000FE32
:1014C000AAAA000180000001800039CDC212319F1C
:1014D0008852739380000001800000018000555500
:1014E0001010201000FEAAAA000180000001800058
:1014F00079CDC212799FC0527B9380000001800099
:101500000001800055551010201000FEAAAA00010D
:101510008000000180004B9DC9207919C904493918
:10152000800000018000000180005555101020103F
:1015300000FEAAAA000180000001800025DDA4842D
:101540003C85A48424998000000180000001800073
:1015500055551010201000FEAAAA000180000001BD
:10156000800045CDC4904489A88410998000000172
:1015700080000001800055551010201000FEAAAA1E
:101580000001800000018000721DCA127213C21295
:1015900043DD8000000180000001800055551010DF
:1015A000201000FEAAAA0001800000018000721332
:1015B000CA127213C21243CD8000000180000001E4
:1015C000800055551010201000FEAAAA00018000CE
:1015D000000180000E2189200E218A20092180002F
:1015E000000180000001800055551010201000FE01
:1015F000AAAA000180000001800039DDC202318DFD
:101600008850739F800000018000000180005555C4
:101610001010201000FEAAAA000180000001800026
:1016200039DDC202318D8842739D80000001800047
:101630000001800055551010201000FEAAAA0001DC
:1016400080000001800071CFCA104A0DCA0271DD0E
:10165000800000018000000180005555101020100E
:1016600000FEAAAA00018000000180007245CA4C59
:101670007245C244418F800000018000000180005B
:1016800055551010201000FEAAAA0001800000018C
:101690008000725DCA42724DC250419F80000001BD
:1016A00080000001800055551010201000FEAAAAED
:1016B00000018000000180003B9DC1203119890498
:1016C0007139800000018000000180005555101024
:1016D000201000FEAAAA000180000001800039D37A
:1016E000C212421FC21239D38000000180000001E3
:1016F000800055551010201000FEAAAA000180009D
:10170000000180002289B6882AA9A2D822898000F7
:10171000000180000001800055551010201000FECF
:10172000AAAA00018000000180003B8DC252339FB5
:101730008A1272138000000180000001800055555C
:101740001010201000FEAAAA0001800000018000F5
:101750007B8DC2527B9FC2127A13800000018000F1
:101760000001800055551010201000FEAAAA0001AB
:10177000800000018000398FC250324D8A42719D35
:1017800080000001800000018000555510102010DD
:1017900000FEAAAA0001800000018000339BC42241
:1017A00025A394A2639B80000001800000018000BB
:1017B00055551010201000FEAAAA0001800000015B
:1017C000800039DDC20832098A0871DD800000011D
:1017D00080000001800055551010201000FEAAAABC
:1017E000000180000001800039DDC2084189C04845
:1017F0003B9D8000000180000001800055551010C5
:10180000201000FEAAAA00018000000180000EF94D
:1018100090200C2182201C2180000001800000010A
:10182000800055551010201000FEAAAA000180006B
:101830000001800031CFCA104991C850338F800019
:10184000000180000001800055551010201000FE9E
:10185000AAAA00018000000180001C8992D81CA95E
:10186000908810898000000180000001800055559B
:101870001010201000FEAAAA0001800000018000C4
:10188000338FCA507B91CA104A0F8000000180003C
:1018900000018000555500000008000E010A0A08EA
:1018A000040080800080808080808080070A0A0891
:1018B000010010107C929090927C1010070A0A0888
:1018C00001001C202020F82020207CC206080808E7
:1018D00001018448784848784884070A0A080100CA
:1018E00082442810FE10FE101010010A0A0804009D
:1018F00080808080000080808080060A0A080100C5
:101900007884807884847804847804020208020C45
:101910009090080A0A0800003C4299A5A1A1A59947
:10192000423C050707080205700878887800F80629
:101930000909080100242448489048482424060442
:1019400004080100FC0404041010201000FEAAAAE0
:10195000000180003A63C25433C98A48724980004A
:101960000001800003C18000000180005555080A75
:101970000A0800003C42B9A5A5B9A9A5423C060148
:101980000108010BFC03040408020A40A0A0400760
:101990000909080101101010FE10101000FE0507C3
:1019A00007080205708808708080F805070708029C
:1019B000057088087008887003030308030A204034
:1019C00080080A0A0800FE424242424242665940EA
:1019D00080060C0C0801FF7CF4F4F4F47414141465
:1019E00014141C020202080304C0C003020208020D
:1019F000FE20C00307070802052060A02020202049
:101A0000050707080205708888887000F80609092C
:101A1000080100909048482448489090060A0A0817
:101A2000010044C4485050242C549C84060A0A08DF
:101A3000010044C4485050283444889C060A0A08CF
:101A40000100C4244830D0242C549C84060A0A087F
:101A5000010010100010106084848478060E0E08B7
:101A60000100601800003048488484FC8484848429
:101A7000060E0E080100186000003048488484FCFF
:101A800084848484060E0E0801003048000030482B
:101A9000488484FC84848484060E0E0801006498C3
:101AA00000003048488484FC84848484060E0E0838
:101AB0000100484800003048488484FC84848484C1
:101AC000060E0E080100304830003048488484FC7F
:101AD00084848484070A0A0801003E509090FE9096
:101AE0009090909E060C0C0801FE78848480808083
:101AF000808484781060060E0E08010060180000D3
:101B0000FC808080F880808080FC060E0E0801003A
:101B100018600000FC808080F880808080FC060EC9
:101B20000E08010030480000FC808080F880808032
:101B300080FC060E0E08010048480000FC808080F2
:101B4000F880808080FC050E0E08020060180000FE
:101B5000F82020202020202020F8050E0E0802006A
:101B600030C00000F82020202020202020F8050E82
:101B70000E08020060900000F82020202020202085
:101B800020F8050E0E08020090900000F82020209A
:101B90002020202020F8070A0A080000784442424A
:101BA000F24242424478060E0E080100649800009A
:101BB00084C4C4A4A494948C8C84060E0E080100E2
:101BC0006018000078848484848484848478060E79
:101BD0000E08010018600000788484848484848462
:101BE0008478060E0E080100304800007884848452
:101BF000848484848478060E0E08010064980000B2
:101C000078848484848484848478060E0E08010099
:101C10004848000078848484848484848478060519
:101C2000050801028448304884060C0C0801FF04B2
:101C300074888C9494A4A4C444B880060E0E080141
:101C400000601800008484848484848484847806FA
:101C50000E0E08010018600000848484848484844B
:101C6000848478060E0E08010030480000848484C5
:101C700084848484848478060E0E08010048480019
:101C80000084848484848484848478070E0E08010C
:101C900000186000008282444428101010101006C2
:101CA0000B0B0801008080F088848488F08080809D
:101CB000060A0A08010070888890B0888484A49875
:101CC000060C0C080100601800007884047C8484F1
:101CD0008C74060C0C080100186000007884047CE9
:101CE00084848C74060C0C08010030480000788451
:101CF000047C84848C74060C0C0801006498000039
:101D00007884047C84848C74060C0C080100484898
:101D100000007884047C84848C74060D0D08010016
:101D200030483000007884047C84848C7407080870
:101D30000801007C92127E9090927C060A0A0801AB
:101D4000FE78848080808084781060060C0C080106
:101D50000060180000788484FC80808478060C0C75
:101D600008010018600000788484FC808084780674
:101D70000C0C08010030480000788484FC808084CA
:101D800078060C0C08010048480000788484FC8028
:101D9000808478050C0C080200C030000060202010
:101DA00020202020F8050C0C08020030C000006044
:101DB000202020202020F8050C0C08020060900054
:101DC0000060202020202020F8050C0C0802009044
:101DD00090000060202020202020F8060C0C080134
:101DE0000064182844047C848484848478060C0C61
:101DF00008010064980000B8C48484848484840644
:101E00000C0C0801006018000078848484848484A9
:101E100078060C0C08010018600000788484848423
:101E2000848478060C0C0801003048000078848413
:101E30008484848478060C0C08010064980000787F
:101E400084848484848478060C0C0801004848004B
:101E5000007884848484848478060707080101302C
:101E60000000FC000030060A0A0801FF04788C9488
:101E700094A4A4C47880060C0C080100601800002B
:101E80008484848484848C74060C0C08010018609B
:101E900000008484848484848C74060C0C08010003
:101EA000304800008484848484848C74060C0C087C
:101EB0000100484800008484848484848C74060E65
:101EC0000E0801FE1860000084848484844C34046D
:101ED0000478050C0C0802FE8080F088888890A0A9
:101EE000C0808080060E0E0801FE484800008484F1
:101EF0008484844C34040478831911241FBECFEFEA
:101F0000D8E0DEBFCDBF22E0AAE6B1E001C01D925D
:101F1000A33FB207E1F711E0A0E0B1E0E8EEF3E49F
:101F200002C005900D92AA36B107D9F71FE0CDE7A0
:101F3000DFE004C02197FE010E94FA1FCC37D107D1
:101F4000C9F70E941F1A0C94F2210C940000089506
:101F500080E008958091B9029091BA02009739F11A
:101F60002091CC02FC01211123C03596E491E0932D
:101F7000CD02FC013C96E491E093CE028091CD022B
:101F8000082E000C990B2091CE02821B910927FD8F
:101F900093952091CF02203441F0829FC0011124FB
:101FA00026E0969587952A95E1F78093D0020895CB
:101FB000213039F43F96E491E093CD02FC01709614
:101FC000DACF3D96E491E093CD02FC013E96D3CF6B
:101FD000833081F028F4813099F08230A9F008959F
:101FE0008730A9F08830C9F08430B1F48091800046
:101FF0008F7D03C0809180008F778093800008954B
:1020000084B58F7784BD089584B58F7DFBCF809193
:10201000B0008F778093B00008958091B0008F7DDD
:10202000F9CFCF93DF93282F30E0F901E854FE4F2A
:102030008491F901E453FE4FD491F901E651FE4F2A
:10204000C491CC23A1F081110E94E80FEC2FF0E0A5
:10205000EE0FFF1FE255FE4FA591B491EC91ED23D9
:1020600081E090E009F480E0DF91CF91089580E075
:1020700090E0FACF1F93CF93DF93282F30E0F90140
:10208000E854FE4F8491F901E453FE4FD491F901D5
:10209000E651FE4FC491CC23A9F0162F81110E9466
:1020A000E80FEC2FF0E0EE0FFF1FE052FE4FA5917E
:1020B000B4918FB7F894EC91111108C0D095DE233C
:1020C000DC938FBFDF91CF911F910895DE2BF8CF66
:1020D000CF93DF9390E0FC01E453FE4F24918651AF
:1020E0009E4FFC0184918823D1F090E0880F991FC6
:1020F000FC01EC55FE4FA591B491FC01E052FE4F5E
:10210000C591D49161110EC09FB7F8948C91E22FC4
:10211000E0958E238C932881E223E8839FBFDF9193
:10212000CF9108958FB7F894EC91E22BEC938FBF89
:10213000F6CFCF92DF92EF92FF92CF936C01809116
:1021400008018A3049F08F3F09F444C0CF91FF90D5
:10215000EF90DF90CF900895EEEFF1E0C491C7FDCE
:10216000F5CF61E08AE00E946810F12CE12CCC23CD
:10217000D9F0960150E040E0C23009F09AC07A01EF
:1021800060E970ED83E090E00E94B91FBA01A901F7
:10219000415051096109710993E04F3F51056105B3
:1021A000710509F00CF4C1C068E478EE81E090E0BC
:1021B000A70196010E94B91FBA01A9014150510916
:1021C0006109710994E0C111B0C085B5887F836051
:1021D00085BDB7C08AE080930801EEEFF1E0C491BD
:1021E000CF3F09F4B3CFC13021F150F0C23009F430
:1021F0003EC0C7FDABCF61E08AE00E946810B9CF56
:1022000014BC15BC84B5826084BD85B5816085BD74
:10221000E4EFF1E0E491F0E0EE0FFF1FE052FE4F3B
:1022200085919491E6EDF1E0E491E093F901C0E04D
:1022300098CF109280001092810080918100886078
:102240008093810080918100816080938100E4EF20
:10225000F1E0E491F0E0EE0FFF1FE052FE4F8591B8
:102260009491E6EDF1E0E491E093F8017ACF1092D9
:10227000B0001092B1008091B00082608093B000F5
:102280008091B10081608093B100E4EFF1E0E491CE
:10229000F0E0EE0FFF1FE052FE4F85919491909376
:1022A000F7018093F601E6EDF1E0E491E093F501AA
:1022B00058CF60E072E18AE790E00E94B91FBA014E
:1022C000A9014150510961097109C130A1F58091FD
:1022D0008100887F816080938100509389004093C2
:1022E00088008FEF9FEFDC018093FE019093FF0148
:1022F000A0930002B093010280916F0082608093EE
:102300006F0024CF4093B3008FEF9FEFDC018093E9
:10231000FA019093FB01A093FC01B093FD01809121
:10232000700082608093700011CF8091B100887F2F
:10233000892B8093B100C13081F2C23019F3C111F1
:1023400005CF47BD8FEF9FEFDC0180930202909392
:102350000302A0930402B093050280916E00826094
:1023600080936E00F3CE3FB7F8948091EF01909187
:10237000F001A091F101B091F20126B5A89B05C032
:102380002F3F19F00196A11DB11D3FBFBA2FA92FF4
:10239000982F8827BC01CD01620F711D811D911DF1
:1023A00042E0660F771F881F991F4A95D1F708955D
:1023B0009091080189130BC0EEEFF1E0E4919FEFDB
:1023C00090930801E13049F028F0E23061F060E0DC
:1023D0000C943A1010926E00FACF90916F009D7F8E
:1023E00090936F00F4CF909170009D7F9093700058
:1023F00091E09093B0009091B100987F9460909399
:10240000B1001092B300E3CFAF92BF92CF92DF92B0
:10241000EF92FF920F931F93CF93DF936C017B0199
:102420008B01040F151FEB015E01AE18BF08C0172A
:10243000D10759F06991D601ED91FC910190F0819D
:10244000E02DC6010995892B79F7C501DF91CF9160
:102450001F910F91FF90EF90DF90CF90BF90AF90C2
:102460000895FC01538D448D252F30E0842F90E09A
:10247000821B930B541710F0CF960895019708957F
:10248000FC01918D828D981761F0A28DAE0FBF2F48
:10249000B11D5D968C91928D9F5F9F73928F90E09E
:1024A00008958FEF9FEF0895FC01918D828D98170D
:1024B00031F0828DE80FF11D858D90E008958FEF4A
:1024C0009FEF0895FC01918D228D892F90E0805C13
:1024D0009F4F821B91098F739927089586E092E0A0
:1024E0000E94621221E0892B09F420E0822F0895D6
:1024F00080E090E0892B29F00E946E1281110C94EB
:1025000000000895FC01A48DA80FB92FB11DA35A96
:10251000BF4F2C91848D90E001968F739927848F03
:10252000A689B7892C93A089B1898C918370806426
:102530008C93938D848D981306C00288F389E02DC7
:1025400080818F7D80830895EF92FF920F931F9378
:10255000CF93DF93EC0181E0888F9B8D8C8D981356
:102560001AC0E889F989808185FF15C09FB7F89462
:10257000EE89FF896083E889F989808183708064AE
:1025800080839FBF81E090E0DF91CF911F910F91F9
:10259000FF90EF900895F62E0B8D10E00F5F1F4F08
:1025A0000F731127E02E8C8D8E110CC00FB607FC17
:1025B000FACFE889F989808185FFF5CFCE010E94A5
:1025C0008212F1CFEB8DEC0FFD2FF11DE35AFF4F7F
:1025D000F0829FB7F8940B8FEA89FB898081806233
:1025E000CFCFCF93DF93EC01888D8823B9F0AA89F0
:1025F000BB89E889F9898C9185FD03C0808186FDBE
:102600000DC00FB607FCF7CF8C9185FFF2CF80810C
:1026100085FFEDCFCE010E948212E9CFDF91CF91ED
:102620000895DC011696ED91FC91179712968C9106
:10263000481B477081E090E001C0880F4A95EAF797
:10264000E60FF11D3081222319F0832B808308953A
:1026500080958323FBCFFB014181DC0112962C91F5
:102660001297421768F013962C911397241740F095
:10267000608115962C91621718F424810C94111323
:102680000895FC0180819281980F92832181921795
:1026900060F494819F5F94839381890F821710F077
:1026A0008FEF820F838381E0089580E00895FC011D
:1026B000128280818150838314820895DB01ED9121
:1026C000FC9109940F931F93CF93DF931F92CDB783
:1026D000DEB70091B7021091B802E091E602F091E6
:1026E000E70282E0099530E020E04AE0B80185EB9E
:1026F00092E00E945E13182FE091E602F091E7024B
:1027000083E00995E091E602F091E70280E0099507
:102710001123B9F16091B7027091B8029E012F5F49
:102720003F4F46E485EB92E00E945E1389818093DF
:10273000B5026091B7027091B8029E012F5F3F4FC2
:1027400047E485EB92E00E945E1389818093B60294
:102750006091B7027091B80230E020E048E485EB68
:1027600092E00E945E138093C0026091B702709164
:10277000B80228EE32E047E185EB92E00E945E135A
:1027800011E0812F0F90DF91CF911F910F9108954C
:102790000B96FC01849108950A96FC01849108959A
:1027A000FC01849108950E94D013882321F0823087
:1027B00011F083E0089586E00895FC01E60FF11D15
:1027C000849190E0982F88273196E4918E0F911D87
:1027D000089568E00C94DD1366E00C94DD135F92BD
:1027E0006F927F928F929F92AF92BF92CF92DF9221
:1027F000EF92FF920F931F93CF93DF93EC01E62E9E
:10280000F42EC22E0C811D81C8010E94D013D82E37
:102810008C819D810E94D313982E21E0AA24AA9432
:10282000D21202C02FE0A22E8C819D810E94CC1377
:10283000D82E8C819D810E94C813B82E8C819D81D9
:102840000E94E913E0E6EC1578F4009769F0080FB0
:10285000191F91E6D92EBC14C0F4188A1B8A1C8A51
:10286000198A1A8A80E0A0C08C819D810E94EC1395
:10287000F0E4FC1538F4009729F0080F191F81E4E3
:10288000D82EE9CF0F5E1F4FE6CFBD1430F3892D50
:1028900090E0F80124912F3F31F40F5F1F4FBD14DA
:1028A000E1F2D394F6CFCD1072C08C819D810E944D
:1028B000D01398012F5F3F4FF801882319F0823021
:1028C00009F04EC084918B8BF90124912C8BF80177
:1028D0003396E491E88BF8013496E491E98BF801A2
:1028E0003596E491EA8B0115110509F4BBCF8C8173
:1028F0009D810E94D3133C89F31A9A89F91A9FEF9C
:10290000930F9F0D2CA94EA94F1508F449C092179B
:1029100018F49F1508F047C02B899989E90E9FEF9D
:10292000920F9E0D4BA95DA95E1508F44DC094173A
:1029300018F49E1508F037C0080F111D295F722E7C
:102940007694769476946F2C630E5E01FCE1AF0E64
:10295000B11C872C912CF61431F15E2C68014AC011
:102960008491982F9F7092509A8B82958F70898B4B
:10297000F9012491822F8F708C8B22952F702B8BD5
:10298000F8013296E491E295EF70E88BACCF329685
:10299000E491EA21E80FF92FF11D0E0F1F1F7FCFE1
:1029A000921708F0B6CF8889DF91CF911F910F91D0
:1029B000FF90EF90DF90CF90BF90AF909F908F905F
:1029C0007F906F905F900895941708F0B2CFEBCF8F
:1029D000F60184916A817B815C8EFD8E1F8E8E8FC5
:1029E00095014BE3CE010E945E13FFEFCF1ADF0A81
:1029F00028E0520E8C2D801B871550F3080D191DF1
:102A0000F394A9CFEF92FF920F931F93CF93DF938D
:102A1000F82E062FE42E152FE091CA02F091CB027A
:102A200085EB92E00995080FCE2DD12F10E029916A
:102A3000211108C0812FDF91CF911F910F91FF903D
:102A4000EF900895402F6F2D85EB92E00E94EF13D9
:102A5000F80E180FECCF2EE93FE0009709F4089527
:102A6000F9013197F1F70197F8CFCF93DF9300D0B9
:102A7000CDB7DEB720ED37E03A8329839091BC00D3
:102A8000982311F081E00FC029813A81232B81F432
:102A90008091F40181FDF6CF8091F30181110DC089
:102AA00091E09093F3010F900F90DF91CF910895F3
:102AB00029813A8121503109DFCF80E0F4CF84EAC7
:102AC0008093BC0061E080E80E943515811102C04E
:102AD00080E008958091B900887F883051F080317E
:102AE00041F08091F3018111F3CF82E08093F301F3
:102AF000EFCF88E78093BB0084E88093BC0062E05E
:102B000080E80E943515882319F38091F40181FD36
:102B100005C08091B900887F883119F781E0089558
:102B200084E98093BC0064E080E10C9435158093C7
:102B3000BB0084E88093BC0063E080E80E94351508
:102B40008823A1F08091F40181FD0DC08091B9002E
:102B5000887F883241F08091F301811106C092E0B4
:102B60009093F301089581E0089580E00895109214
:102B7000F30108958093F4011092B90084FF05C019
:102B80008CE08093B8000C94B71588E4FACFCF930B
:102B9000DF93FC0123A5222389F0EC010E945F153D
:102BA000811104C080E0DF91CF9108958EA1811141
:102BB00007C00E9497158823A9F31BA681E0F3CFD5
:102BC00080E4F7CF0F931F93CF93DF93C62FD42FBB
:102BD0008901633001F138F4613099F0623009F411
:102BE00049C0C1E012C0663029F1673091F165300B
:102BF000C1F70E94C715811117C00E949015C0E04F
:102C000004C0FC0186A50E94BA158C2FDF91CF91DC
:102C10001F910F910895FC0116A221E023A74111F5
:102C2000E0CF0E949015DDCF8D2F0E949715811166
:102C3000D8CFE3CF0E94C7158823F9F2DD2389F2AC
:102C4000F80181918F010E9497158823B1F2D1502C
:102C5000F5CF0E94C715882381F2DD2311F2F80118
:102C600084910E949715C82F882379F20F5F1F4F18
:102C7000D150F3CFFC0146A321E023A7B2CFDB0163
:102C80001496ED91FC9130E020E065E00994DB01C1
:102C90001496ED91FC9130E020E062E00994DB01B4
:102CA0001496ED91FC9130E020E063E00994CF921E
:102CB000DF92EF92FF920F931F93CF93DF938C01DC
:102CC0007B016A0180E0F601C491811110C081E0AE
:102CD000CF3F49F04C2FB701C8010E943F1688230F
:102CE00009F444C080E0BFEFCB1ADB0AECCF4FEF12
:102CF000CF3F89F3CE3FD9F1C03FA0F7C03E38F0B7
:102D00004C2F4F70B701C8010E944716EBCFC03D52
:102D100038F04C2F4F70B701C8010E944F16E2CF18
:102D2000C03CF8F0D7011496ED91FC9130E020E022
:102D300040E064E0C8010995C295C07FCE5FD0E055
:102D4000CE010E942B15D7011496ED91FC9130E035
:102D500020E041E064E0C8010995CE010E942B15F6
:102D6000C1CFC7FDBFCF8C2F90E0F8CF80E0DF91BF
:102D7000CF911F910F91FF90EF90DF90CF9008952A
:102D8000AF92BF92CF92DF92FF920F931F93CF9398
:102D9000DF936C018B01F42EE90180E1481709F4FF
:102DA0007EC0841778F1AAE04A1709F461C0BFE039
:102DB0004B1709F47FC0F80102811381F2E3FF167B
:102DC00009F4DDC0FF1508F48EC085E1F81609F49A
:102DD000DBC0A7E1FA1609F4ECC0B4E1FB1265C050
:102DE000D8011696ED91FC91179715968C918E0F40
:102DF0009F2F911D11928E179F07E1F7C8010E9426
:102E0000571353C0E1E14E1709F451C0F5E14F13D8
:102E1000D2CFFB01A280B38046E751E0C6010E94F9
:102E20005716D50114964C91406BB801C6010E940B
:102E30003F1641E0B801C6010E944716F501268100
:102E40003781D8011496ED91FC91D50115964C91DE
:102E500066E0C601099581111CC080E0DF91CF9129
:102E60001F910F91FF90DF90CF90BF90AF9008958A
:102E7000DB011496ED91FC9130E020E042E061E04E
:102E8000C60109954EE751E0B801C6010E945716E8
:102E900092CF40E0B801C6010E944F168CCF4DE69C
:102EA00051E0B801C6010E94571681E0D7CF42E633
:102EB00051E0F7CF41E0C6010E944F1640E0B80153
:102EC000C6010E94471641E8B801C6010E943F169C
:102ED0004881B801C6010E943F1640E0B801C60112
:102EE0000E944F16E2CFE6E4FE1609F46CC0F7E448
:102EF000FF1609F46DC08BE3F812D7CF99818B814F
:102F000038E0390F813031F0833011F0392F02C0B1
:102F1000392F985021E0D80113964C91491708F4A5
:102F200020E041E0391708F040E091E0F8015281DB
:102F3000351708F490E0322F342B932319F424230F
:102F400009F4B3CFFA80D12CC12C843048F490E03E
:102F5000FC01E75EFE4FC0808B5E9E4FDC01DC9083
:102F6000F7FE04C0BE01C8010E942B1388818C0D9E
:102F7000888389818D0D8983FF0C91F796CFBE01DF
:102F8000C8010E942B1391CFC8010E9441138823CE
:102F900009F463CFD8011696ED91FC911797159619
:102FA0008C918E0F9F2F911D11928E179F07E1F725
:102FB0007CCF1882F80182818983858181508A8340
:102FC00083818B8372CFD80115968C9188836DCFC6
:102FD000F8018181FBCFDF92EF92FF920F931F9355
:102FE000CF93DF93EC01D62E1CAD0BAD7C0184E0BA
:102FF000E80EF11CE98DFA8DC7010995412F480FA4
:103000002D2D602FC7010E94EF139BAD890F8BAF51
:1030100081E090E0DF91CF911F910F91FF90EF90B1
:10302000DF900895089590E080E00895CF92DF92B8
:10303000EF92FF920F931F93CF93DF93CDB7DEB73D
:10304000A1970FB6F894DEBF0FBECDBF7C01CB01B8
:10305000BA01F70111821082138212821582148242
:103060008E010F5F1F4F21E043E00E94F01C6C01B6
:10307000F70180819181C114D10469F1F6010190B9
:103080000020E9F731978F010C191D09009731F0E5
:10309000F701228133812017310790F4B8016F5F67
:1030A0007F4F0E942521F701009799F0918380833B
:1030B0001383028324813581232B11F4FC011082B8
:1030C000F70115830483B601808191810E94EB2171
:1030D0000DC080819181009711F00E949C20F70122
:1030E000118210821582148213821282A1960FB669
:1030F000F894DEBF0FBECDBFDF91CF911F910F912E
:10310000FF90EF90DF90CF9008951F920F920FB62F
:103110000F9211242F933F938F939F93AF93BF935D
:103120008091EB019091EC01A091ED01B091EE0145
:103130003091EA0123E0230F2D3758F50196A11DA8
:10314000B11D2093EA018093EB019093EC01A093D1
:10315000ED01B093EE018091EF019091F001A0910B
:10316000F101B091F2010196A11DB11D8093EF0113
:103170009093F001A093F101B093F201BF91AF9150
:103180009F918F913F912F910F900FBE0F901F90A5
:10319000189526E8230F0296A11DB11DD2CF1F92CC
:1031A0000F920FB60F9211242F933F934F935F937B
:1031B0006F937F938F939F93AF93BF93EF93FF93FF
:1031C0008091FA019091FB01A091FC01B091FD0169
:1031D000892B8A2B8B2BD1F19091F501E091F6018F
:1031E000F091F7018081892780838091FA01909185
:1031F000FB01A091FC01B091FD01181619061A06F9
:103200001B069CF48091FA019091FB01A091FC01B6
:10321000B091FD010197A109B1098093FA01909342
:10322000FB01A093FC01B093FD01FF91EF91BF91D1
:10323000AF919F918F917F916F915F914F913F914E
:103240002F910F900FBE0F901F901895809108013D
:103250000E94D811EACF1F920F920FB60F9211243D
:103260002F933F934F935F936F937F938F939F938E
:10327000AF93BF93EF93FF9386E092E00E94821298
:10328000FF91EF91BF91AF919F918F917F916F913E
:103290005F914F913F912F910F900FBE0F901F9014
:1032A00018951F920F920FB60F9211242F938F93A0
:1032B0009F93EF93FF93E0911602F09117028081A4
:1032C000E0911C02F0911D0282FD1BC09081809153
:1032D0001F028F5F8F7320912002821741F0E091CF
:1032E0001F02F0E0EA5FFD4F958F80931F02FF9170
:1032F000EF919F918F912F910F900FBE0F901F9084
:1033000018958081F4CF109209021092080288EE7D
:1033100093E0A0E0B0E080930A0290930B02A093A8
:103320000C02B0930D0281E291E09093070280932A
:10333000060285EC90E0909313028093120284ECD5
:1033400090E0909315028093140280EC90E09093AB
:1033500017028093160281EC90E0909319028093FB
:10336000180282EC90E090931B0280931A0286EC84
:1033700090E090931D0280931C0210921F02109205
:10338000200210922102109222021092B402109296
:10339000B30283E391E09093B2028093B102109262
:1033A000EC021092ED021092EE021092BA0210920C
:1033B000B9021092BC021092BB021092BE0281E0D0
:1033C0008093BD0282E28093BF021092C4021092E9
:1033D000C302E8EDF2E086EE92E02FEF21938E1724
:1033E0009F07E1F781E08093D50228EA3FE0309320
:1033F000CB022093CA028093CC021092CD0210928D
:10340000CE0280E48093CF021092D00287EA9FE040
:103410009093E7028093E60289E091E09093B802EE
:103420008093B7021092E3020E94621383E391E05B
:103430009093B2028093B1021092B0020895CF939C
:10344000DF93CDB7DEB728970FB6F894DEBF0FBE77
:10345000CDBF789484B5826084BD84B5816084BD1D
:1034600085B5826085BD85B5816085BD80916E0022
:10347000816080936E001092810080918100826053
:103480008093810080918100816080938100809190
:1034900080008160809380008091B100846080937F
:1034A000B1008091B00081608093B00080917A007B
:1034B000846080937A0080917A00826080937A00A1
:1034C00080917A00816080937A0080917A00806890
:1034D00080937A001092C100E0911602F0911702D9
:1034E00082E08083E0911202F09113021082E09159
:1034F0001402F09115028FEC808310921E02E0916D
:103500001A02F0911B0286E08083E0911802F0918C
:103510001902808180618083E0911802F091190284
:10352000808188608083E0911802F0911902808187
:1035300080688083E0911802F091190280818F7D6C
:10354000808360E083E00E94681060E086E00E9473
:10355000681060E08EE00E94681061E08AE00E94DE
:10356000681061E089E00E94681083E00E941110F9
:103570008C0186E00E9411103C0180E480937C0065
:1035800080917A00806480937A0080917A0086FD31
:10359000FCCF809178009091790098878F838091FB
:1035A000B002882309F0F894E1EDF1E0F490EFEE39
:1035B000F1E08491E82FF0E0EE0FFF1FE255FE4F9F
:1035C000C590D49061E085E00E94681060E085E0DD
:1035D0000E943A100E94B3111B012C0192E1892E26
:1035E000912CA12CB12C0E94B3116219730984098A
:1035F0009509683E734081059105A8F3F1E08F1AA3
:103600009108A108B10828EE220E23E0321E411CC9
:10361000511C81149104A104B10429F761E085E0F3
:103620000E943A1060E085E00E94681080E293E01A
:10363000F60120812F2109F46CC10197C9F780910F
:10364000B0028111BFC18091AB028F778093AB0232
:103650006091AD02F62EE894F7F8F092AD02682F73
:1036600070E090E080E00E94451F6093A302709399
:10367000A4028093A5029093A6026F2D70E090E0C3
:1036800080E00E94451F6093A7027093A802809378
:10369000A9029093AA028091EE02811105C081E0F7
:1036A0008093EE020E946213E090B702F090B8029D
:1036B000E091E602F091E70282E00995E091E602EE
:1036C000F091E70281E0099530E020E044E1B701A4
:1036D00085EB92E00E945E1328EE32E047E1B701ED
:1036E00085EB92E00E945E13E091E602F091E70222
:1036F00080E009955FE3E52E51E0F52E01151105F7
:1037000021F04BE3E42E41E0F42EEF81F8853FE316
:10371000C32E31E0D32EEE37F10524F42BE3C22E75
:1037200021E0D22E9FE3A92E91E0B92E61147104FD
:1037300021F08BE3A82E81E0B82E8091B902909100
:10374000BA028954994071F089E499E09093BA02E1
:103750008093B9020E94AA0FA8EABFE0B093CB02FF
:10376000A093CA028091B9029091BA028F5F9140F2
:1037700071F0EFEFF1E0F093BA02E093B9020E942A
:10378000AA0F88EA9FE09093CB028093CA0248E494
:1037900051E06FE087E00E940215A7016FE082E32D
:1037A0000E94021540E551E06DE287E00E9402159B
:1037B000A6016DE282E30E94021546E551E06EE14A
:1037C00087E00E940215A5016EE182E30E940215C6
:1037D0004EE551E06CE38AE00E9402154091A70299
:1037E0005091A8026091A9027091AA02CE0101969F
:1037F0000E94161849815A816CE389E10E940215E2
:1038000089819A81009711F00E949C2042E651E044
:103810006CE382E30E94021544E651E06CE386E427
:103820000E9402154091A3025091A4026091A5024A
:103830007091A602CE0101960E94161849815A8104
:103840006CE385E50E94021589819A81009711F049
:103850000E949C2048E651E06CE38EE60E9402152F
:10386000E091C302F091C402309719F085EB92E029
:1038700009958090B7029090B802E091E602F0912D
:10388000E70282E00995E091E602F091E70281E02B
:10389000099530E020E045E1B40185EB92E00E941B
:1038A0005E13582E882341F028EE32E047E1B40140
:1038B00085EB92E00E945E13E091E602F091E70250
:1038C00080E00995511039CF012B09F07DC080EFC0
:1038D00095E00E949910672809F07AC088EF92E07D
:1038E0000E949910AF81B885AE37B1050CF474C051
:1038F00088EE98E00E94991080E090E0892B09F40E
:1039000034CE0E946E12882309F42FCE0E9400004C
:103910002CCE80E991E0D6012C912F2119F401974A
:10392000D1F78DCE80E991E0F60120812F21A9F118
:103930000197D1F784CE6F2FEE2309F480CED60104
:10394000FC91FF2139F5662329F1E83299F58417B6
:10395000950708F4AC0160E971E080E090E0641B39
:10396000750B81099109A2E09595879577956795E3
:10397000AA95D1F79B01A69451F4AB2DB0E0AD55BB
:10398000BD4F1896EC92B394E12C60E8A62EE1505E
:1039900080E991E0019779F652CEB12CE12CB0E8A4
:1039A000AB2E30E020E080E991E040E951E060E0BA
:1039B000E8E2C5CFBA01621B730B68177907D8F22A
:1039C000EA28D9CF78943FCE8AE00E94D81183CFDD
:1039D0008AE00E94D81186CF8AE00E94D8118CCF4D
:1039E000EF920F931F93CF93DF93E80134E047FDED
:1039F00034E1042E000C550B57FF03C0519541953F
:103A00005109E32E022F242FAE010E940E1DCE017C
:103A1000DF91CF911F910F91EF900895A9E0B0E051
:103A2000E4E1FDE10C94881F6A01F22EB02E102F04
:103A3000FBE3AF2EA01608F41BE31F5F012F27E066
:103A4000AE014F5F5F4F0E946D1EBC018981982FB0
:103A50009970913009F43FC09BE2E1FC04C09E2DB7
:103A60009170E0FC3AC05E2D5071E82FE87083FF42
:103A700046C084E0911101C083E0EF2DE81B8F1553
:103A800008F0E0E0D6018E2F20E2552351F1992372
:103A900029F0D6019C93C60101966C0196012D5F19
:103AA0003F4FE2FE24C08EE4D6018C9391E4119640
:103AB0009C93119712968C93D9018E2F90E28111CD
:103AC0001BC0E20FF32FF11D10828EEF9FEF29969E
:103AD000ECE00C94A41F9DE2C6CF90E2C4CF2D93DE
:103AE00081508111FCCFCE0ED11CE0E0D0CF8EE60C
:103AF000D6018C9391E6DBCF9D938150E0CF482F88
:103B0000447082FF3DC084E0911101C083E08F15B5
:103B100010F4EF2DE81BD6018E2F20E2552309F17A
:103B2000992329F0D6019C93C60101966C01960158
:103B30002D5F3F4FE2FE1BC089E4D6018C938EE4DB
:103B400011968C93119786E412968C93D9018E2F3F
:103B500090E2882309F4B5CF9D938150FACF2D933D
:103B600081508111FCCFCE0ED11CE0E0D9CF89E687
:103B7000D6018C938EE611968C93119786E6E4CF4E
:103B80009B0177FF02C030E020E0A1E0B0E091119E
:103B900002C0B0E0A0E0F9013196AE0FBF1F8B2C40
:103BA000912CBB2009F461C05401EFEFAE1ABE0A9C
:103BB000AA0DBB1DFA161B0619F014F04F2D4A1B57
:103BC000511188C0E3FC59C07601A42FB0E2A111C5
:103BD0004FC0C40ED11C992309F45BC040E0D6014C
:103BE0001196F60190836D01552309F448C0012F09
:103BF000060F9A81582F507184FF03C0913309F446
:103C0000015010160CF047C0093008F008E0EEE251
:103C1000FE2E5B01A01AB108850191948194910850
:103C20002F3F320729F4D601FC92F60131966F013D
:103C30006217730794F1021713077CF5DB01A21BCF
:103C4000B30BAA24A394B12CAC0EBD1EAA0DBB1DB0
:103C500011968C9121503109D601119628153905FC
:103C6000F4F0F60180836D01DBCFB12CA12CA0CF45
:103C7000F701B1937F01A150AACF9111B0CFD60126
:103C8000942F50E302C05D9391509111FCCFC40E6C
:103C9000D11C40E0ACCF01E0BACF80E3DBCF6217AC
:103CA000730731F4963388F4953311F4552369F092
:103CB000F6018083FD01842F90E2811108C0A40FDA
:103CC000B11D1C9290E080E002CF81E3F1CF91938F
:103CD0008150F3CF911183CF8ACF283008F027E0AD
:103CE0003327DA01990F311D87FD91600096610538
:103CF000710539F432602E5F3D9330E32A95E1F788
:103D000008959F3F30F080387105610509F03C5FF0
:103D10003C5F3D93913008F08068911DDF93CF9315
:103D20001F930F93FF92EF92192F987F9695E92F8B
:103D300096959695E90FFF27EE53FF4F9927332766
:103D4000EE24FF24A701E70105900894079428F4C6
:103D5000360FE71EF81E491F511D660F771F881F7B
:103D6000991F0694A1F70590079428F4E70EF81E12
:103D7000491F561FC11D770F881F991F661F069484
:103D8000A1F70590079428F4F80E491F561FC71F86
:103D9000D11D880F991F661F771F0694A1F7059004
:103DA000079420F4490F561FC71FD81F990F661F8D
:103DB000771F881F0694A9F784911095177041F01A
:103DC000D695C79557954795F794E7941A95C1F7F7
:103DD000E8E6F0E06894159015913591659195911C
:103DE00005907FE27395E118F10A430B560BC90B5E
:103DF000D009C0F7E10CF11E431F561FC91FD01D8B
:103E00007EF4703311F48A95E6CFE894015030F0D7
:103E1000080F0AF40027021708F4202F2395022F19
:103E20007A3328F079E37D932A95E9F710C07D93E2
:103E30002A9589F60694979567953795179517945F
:103E4000E118F10A430B560BC90BD00998F02395E2
:103E50007E9173957A3308F070E37C932013B8F762
:103E60007E9170617D9330F0839571E37D9370E373
:103E70002A95E1F71124EF90FF900F911F91CF91B8
:103E8000DF91992787FD90950895E89409C097FBE5
:103E90003EF490958095709561957F4F8F4F9F4F21
:103EA0009923A9F0F92F96E9BB279395F695879565
:103EB00077956795B795F111F8CFFAF4BB0F11F428
:103EC00060FF1BC06F5F7F4F8F4F9F4F16C08823CF
:103ED00011F096E911C0772321F09EE8872F762F05
:103EE00005C0662371F096E8862F70E060E02AF046
:103EF0009A95660F771F881FDAF7880F9695879532
:103F000097F908952F923F924F925F926F927F920E
:103F10008F929F92AF92BF92CF92DF92EF92FF92D9
:103F20000F931F93CF93DF93CDB7DEB7CA1BDB0B85
:103F30000FB6F894DEBF0FBECDBF09942A8839882A
:103F400048885F846E847D848C849B84AA84B98431
:103F5000C884DF80EE80FD800C811B81AA81B9813D
:103F6000CE0FD11D0FB6F894DEBF0FBECDBFED0151
:103F70000895052E97FB1EF400940E94D01F57FD54
:103F800007D00E94D81F07FC03D04EF40C94D01F1A
:103F900050954095309521953F4F4F4F5F4F089575
:103FA00090958095709561957F4F8F4F9F4F0895A5
:103FB000A1E21A2EAA1BBB1BFD010DC0AA1FBB1F2D
:103FC000EE1FFF1FA217B307E407F50720F0A21B9F
:103FD000B30BE40BF50B661F771F881F991F1A940C
:103FE00069F760957095809590959B01AC01BD0136
:103FF000CF010895EE0FFF1F0590F491E02D099475
:104000000F931F93CF93DF938230910510F482E0DA
:1040100090E0E091F102F091F20230E020E0B0E0B7
:10402000A0E0309799F42115310509F44AC0281B06
:10403000390B24303105D8F58A819B8161157105D2
:1040400089F1FB0193838283FE0111C0408151817C
:104050000281138148175907E0F04817590799F46E
:10406000109761F012960C93129713961C93329648
:10407000CF01DF91CF911F910F9108950093F1022D
:104080001093F202F4CF2115310551F04217530776
:1040900038F0A901DB019A01BD01DF01F801C1CFB0
:1040A000EF01F9CF9093F2028093F102CDCFFE01A0
:1040B000E20FF31F819391932250310939832883B2
:1040C000D7CF2091EF023091F002232B41F42091C1
:1040D0001101309112013093F0022093EF022091F0
:1040E0000F01309110012115310541F42DB73EB774
:1040F0004091130150911401241B350BE091EF0204
:10410000F091F002E217F307A0F42E1B3F0B2817E3
:10411000390778F0AC014E5F5F4F2417350748F040
:104120004E0F5F1F5093F0024093EF0281939193E3
:104130009FCFF0E0E0E09CCFCF93DF930097E9F0D2
:10414000FC01329713821282A091F102B091F20227
:10415000ED0130E020E01097A1F420813181820F41
:10416000931F2091EF023091F0022817390709F0D0
:1041700061C0F093F002E093EF02DF91CF910895D8
:10418000EA01CE17DF07E8F54A815B819E01411500
:104190005105B1F7E901FB83EA8349915991C40FB5
:1041A000D51FEC17FD0761F4808191810296840F81
:1041B000951FE90199838883828193819B838A83F8
:1041C000F0E0E0E012968D919C9113970097B9F57D
:1041D0002D913C911197CD010296820F931F209152
:1041E000EF023091F0022817390739F6309751F570
:1041F0001092F2021092F102B093F002A093EF023B
:10420000BCCFD383C28340815181840F951FC817CF
:10421000D90761F44E5F5F4F88819981480F591F1C
:10422000518340838A819B81938382832115310549
:1042300009F0B0CFF093F202E093F1029ECFFD01BE
:10424000DC01C0CF13821282D7CFB0E0A0E0EBE256
:10425000F1E20C94841F8C01009751F4CB010E9471
:1042600000208C01C801CDB7DEB7E0E10C94A01F9F
:10427000FC01E60FF71F9C0122503109E217F307FA
:1042800008F49DC0D901CD91DC911197C617D707CD
:1042900098F0C530D10530F3CE0104978617970703
:1042A00008F3C61BD70B2297C193D1936D937C93D0
:1042B000CF010E949C20D6CF5B01AC1ABD0A4C01F5
:1042C0008C0E9D1EA091F102B091F202512C412C56
:1042D000F12CE12C109731F58091EF029091F002D2
:1042E0008815990509F05CC04616570608F058C0B5
:1042F00080910F0190911001009741F48DB79EB706
:104300004091130150911401841B950BE817F90794
:1043100008F055C0F093F002E093EF02F9017183C9
:104320006083A0CF8D919C91119712966C901297FB
:1043300013967C901397A815B90559F56C0142E0C6
:10434000C40ED11CCA14DB0420F1AC014A195B096C
:10435000DA011296159780F062827382518340834E
:10436000D9016D937C93E114F10471F0D701139698
:10437000FC93EE93129776CF22968C0F9D1FF90136
:1043800091838083F301EFCFF093F202E093F10287
:1043900069CF4816590608F42C017D01D3019ACF44
:1043A000CB010E9400207C01009749F0AE01B801CA
:1043B0000E94E221C8010E949C20870153CF10E097
:1043C00000E050CFFB01DC0102C001900D92415092
:1043D0005040D8F70895FB01DC0101900D920020B8
:0843E000E1F70895F894FFCF06
:1043E8000840000000806A01FFC0160001E21500C5
:1043F80000F3028000000100FF0100FF0000000040
:1044080000A41204123112F1126212401254120066
:10441800000000EB170412131812184E6F74204492
:104428006574656374656400466C616D653A200067
:104438004761733A2000536D6F6B653A2000543A18
:0A44480020004300483A2000250040
:00000001FF
